:20000000183F0020F59E0000FDC90110FDC90110FDC90110FDC90110FDC90110FDC90110CC
:1C002000FDC90110FDC90110FDC90110FDC90110FDC90110FDC901103BCA0110A4
:20003C002DE9F04FADF1540D07F090FDD749002007F0E0F8D64900200AF052FBD5490120F8
:20005C000AF04EFB002009F0EFFF012009F0ECFF0AF00AF8D54C04F1340528460BF0A0FDE4
:20007C000020294684F83C000AF01EF8A062002800F03183D34E4FF000080127454675604F
:20009C00434637600A22B360D148F26040F6AC514180C0F81480C0F818800D25B561134649
:2000BC00F3610E2777614FF0140BC6F824B01122326241463161CB4BB1624546DD8140465B
:2000DC00587047469F81DF7001221A70C64DDD6110469870C84FDF624FF6FF765E821E8252
:2000FC00C24A1A62C54D1D63C2489862C74F9F64D049D963BE4E5E62C14A5A63C44DDD6472
:20011C00C1485864C64F9F654FF0800AA3F804A04FF04009A3F80690A3F808A0B94EA3F83F
:20013C000A90BC4AC3F81480BE4D9E63BB481A65BD4FDD65B84E586502211E664FF0FF32FE
:20015C00BA70164679703546BE710422FD7030467A71B64E3871B84D9E6142466A70B44867
:20017C00186446463C222E70AE203A704346AB700BF0AEFBD5200BF0ABFB50460BF0A8FBD5
:20019C00A8200BF0A5FB3F200BF0A2FBD3200BF09FFB30460BF09CFB48460BF099FB8D208F
:2001BC000BF096FB97F90100012814BF584610200BF08EFB20200BF08BFB30460BF088FB03
:2001DC00A1200BF085FBC8200BF082FBDA200BF07FFB12200BF07CFB81200BF079FB97F9B4
:2001FC000100012814BFCF209F200BF071FBD9200BF06EFB97F90100012814BFF120222094
:20021C000BF066FBDB200BF063FB48460BF060FBA4200BF05DFBA6200BF05AFB2E200BF0B8
:20023C0057FBAF200BF054FB0BF0E2FB09F0D0FCC54F07F118010A6803A802600979017102
:20025C0003A805210BF004FE0BF01EF907F11D010A6805A802600979017105A805210BF049
:20027C00F7FD07F136010A6807A802600979017107A805210BF0ECFD07F127010A6809A8CC
:20029C0002600979017109A805210BF0E1FD07F131010A680BA80260097901710BA80521BE
:2002BC000BF0D6FD07F12C0631680DA801603779077105210DA80BF0CBFD0BF0E5FA4FF09C
:2002DC005F0A04F16D064046BEA184F86C000A680B7A32604F6833724FF0010977605A22E3
:2002FC0084F88120A0694FF0FF324146134606F0F9FF0646300906D348460BF02BFD4F46DA
:20031C002771484660707008ECD320790028E9D00BF01AFD41464FF4807208F055FA484677
:20033C000BF016FC48460BF00BFC282008210BF0FFFBB1480BF051FB94F86C7040460BF075
:20035C00CFFD67B110204F46A94A009046460346414601971E323046029607F087FF668997
:20037C0070200BF0BDFD642E68DC0A2096FBF0F0401E072803D9083801285FD91AE0DFE8E0
:20039C0000F02D2B29250B231E1CC04600000301CD91000055BF000030460A2108F038FFF7
:2003BC00052905D8934A20324AE0C04608020020904A44E08E4A5E3242E0C94AF3E78C4A42
:2003DC003EE0C046A8310020C54A39E0894A37E0501F0020C34AE6E7C24A31E0844A7E32CE
:2003FC002EE0C0460C310020474700003DBB0000ADB000002DBB00001DBB00003578000020
:20041C0005140000D1AB0000ADB00000A9B5000005980000A39B0000CD74000041BD000056
:20043C004DBD00000DBB00002411002009790000455D0000195F000030320020A84A4032F7
:20045C00102046464F4600901023314601977020029607F00BFF484620723946304608F027
:20047C00E7FB40462072216B2078002800F0C680401E4DD0401E40F0238109F02DFA0746CA
:20049C000BF07FFA687880F0010068700BF0D4FC6E78002E0CBF944A944A30204E464346D0
:2004BC000090102101960A200293302307F0DEFEE679B7421CBFFEB2E6710FA84146062243
:2004DC0008F082F90FA884A1324609F075F924200AF096FE02200BF03BFB48460BF030FBF9
:2004FC000FA80BF0B7FA40B2401E012808D9801E012803D9801E07D1442002E0502000E074
:20051C005C2024210BF014FB0FA80BF066FACDE077480088C7B20BF034FA0BF08DFCA878A8
:20053C00B0B1401E12D0401E06D0401E1CBF4046A8701AD16F4A00E06F4A302000904E4642
:20055C000196434602930BE00CD100006B4A01E0634A603230200090CDF80490CDF80880A7
:20057C000A201021302307F081FEA878A679401CB742C0B200F00300A8701CBF3E1CA671DE
:20059C004146032213A808F01FF91A200AF038FE03200BF0DDFA48460BF0D2FA70B20028CA
:2005BC0015D472B213A84CA109F006F913A80BF051FA40B2401E012802D9801E11D10CE0B1
:2005DC0056200BE04D454D535445434800C08DF84EA08DF84DA08DF84CA044201A210BF098
:2005FC00A7FA13A80BF0F9F94846607268E0C046DEC10000BCC20000750200204048034663
:20061C0046691F690BF0B2FB884259D00BF0AEFB20630BF0B6F903200BF09AFA48460BF0E0
:20063C008FFA13201C210BF083FA5FFA86FBFFB2BBF1180F1FDC3C2F1DDCBBF10A0FA6BF46
:20065C005FFA86FB24A125A111A85A4609F0B4F82E78002E0CBF20203A200A2F8DF84600DE
:20067C00ACBF1DA11DA13A460DF1470009F0A4F811A80BF0B2F9287880F0010028700320F2
:20069C000BF066FA48460BF05BFA37201C210BF04FFA37201C21122218230BF0B3F92878E3
:2006BC0000280CBF20203A2000F05CFE48466072E078012804D04846E070206900F022F821
:2006DC00607A00283FF40EAE0220072108F0B0FA4046607206E6FEE7256400C030256400F6
:2006FC001CC300007CC200001CC90000FCC7000020240020DCC60000BCC500009CC4000032
:20071C00A8310020DFF800F0DFBF01102DE9F04F08260125ADF1840DADF8206008A8ADF8FC
:20073C0022500AF011F8DA4C9DF8240020700A98606104F130000BF0C4FADA4F4FF4FA62B0
:20075C000223A061394604F1640009F0ADFA43F69822334604F18800394609F0A5FA41F2AC
:20077C0088324FF4007304F1AC00394609F09CFAA946C820ADF85A0004258DF87290002791
:20079C00ADF8587049468DF873500DF17202ADF85E904FF4C860ADF85C004FF47A70ADF8B6
:2007BC00600040F2053000F0B7FA40F20630022116AA00F0B1FA4FF44270132104F13C0273
:2007DC0000F0AAFA04F1240240F20730092100F0A3FA4FF4447049460DF1730200F09CFAAF
:2007FC0040F2113002210DF15A0200F095FA40F21230022117AA00F08FFA40F21330022105
:20081C000DF15E0200F088FA4FF44570022118AA00F082FACE49032009F0F2FD15978DF850
:20083C007490B8468DF877904FF4816029468DF8758015AA8DF8768009F01EFF4FF480608E
:20085C0049461DAA09F018FF40F2024049460DF1750209F011FF40F2034049460DF176021B
:20087C0009F00AFF40F2064049460DF1770209F003FF0BF058FB0BF053FB0BF0CDF8C44F77
:20089C00ADF82C603878ADF82E5080000C900BA809F05AFF00280CBF0D984046BD4988600B
:2008BC0038B10AF061FDBB48BB4A31460C3009F099FC09F039F8ADF838603878ADF83A504C
:2008DC0080000F900EA809F03FFF002814BF40461098B8498A46886038B10AF045FDAF4AF0
:2008FC000AF11400112109F07DFCAA48AC4B02270621077058781970062801DA08F086F8A1
:20091C0002238DF87B5048468DF8793003228DF87800A44F8DF87A200DF1620339683879A1
:20093C0019601EAA18714946404608F01DFB484649460DF1790208F017FB022049460DF15D
:20095C007A0208F011FB032049460DF17B0208F00BFB284605210DF1620208F005FB924808
:20097C008C49486091480BF0FBF904F12000CAF8040004F11C0008F08FFD07F10C000AF0A8
:20099C0053FCDFF82CB2454607F1050A0A20ADF80200ADF800604FF0FF370197684609F01B
:2009BC00D3FE002840F01781CDF85080ADF844600920ADF8460011A809F0C6FE139F002818
:2009DC00149740F00881BDF8480010280DD120789DF84A10884208D139460878B02804D1AE
:2009FC0001F1080009790AF0EDFD1498002800F0F280ADF808600320ADF80A00039702A822
:200A1C0009F0A2FEE7E0A0690AF077FE5FEA000900F0E180074639886078491E00F0AA80D8
:200A3C00C91E00F08B803C396CD0403903D0803900F09580C5E0BF78874200F0C280062FF1
:200A5C0056D0062832D0022802D1E078042F21D0012F55D14FF441700DF16A0105F0FEFE07
:200A7C009DF86E308DF86E509DF86D208DF86D508DF870309DF86F008DF871008DF86F204D
:200A9C000DF16A031A6859460A605868486037E0040C0020012807D0304609F085FB20285E
:200ABC000CD02DE055B70000E57029E092480BF0C9FA93480BF0C6FA052F0BD030464FF4D1
:200ADC00C86109F0F3FD09204FF4C86109F0EEFD294609E03046202109F0E8FD0920202118
:200AFC0009F0E4FD47F23051284609F0DFFD07E083480BF0A5FA844940F20E3005F0AEFED9
:200B1C0067705EE0BA78910806D32179491CC9B2072914BF21712571110952D3062850D0CE
:200B3C003046202109F0C2FD0920202109F0BEFD284647F2305109F0B9FD42E0B9780129B8
:200B5C0008D002290BD16D480BF07CFA07E0C04661BF0000062802D168480BF071FAB87820
:200B7C0018B1801E2DD1022000E028461FA909F091F926E0B97801291ED0022903D00329C0
:200B9C0008BF65811DE05C480BF05CFA19E0C0462C150020C41E002040D400004CD4000004
:200BBC00501F0020D0D300000FBF000007BF00001F190020E41A0020062802D14E480BF04B
:200BDC003FFAADF810600520ADF81200CDF8149004A809F0B9FDA06900F09AF800283FF425
:200BFC0012AFE0886178820861D320F002000629E0805CD1208909212A460AF0D5FC002815
:200C1C0007904FD021791AF8011000F8011BA27800F8012B22791AF80220520828BF00F8EB
:200C3C00015B0A0906D3A27A00F8012B6289121200F8012B49090DD3217B00F8011BA189D1
:200C5C00091200F8011BA17B00F8011BE189091200F8011B07992D4F401AC0B2ADF81A00D9
:200C7C00B968208907460AF08BFF400808D32548008806A9ADF8180038460AF017FD18B1E4
:200C9C0006A81B210AF09EFC6089A7784FF470410A306081781CC0B2A07091FBF0F080B2EF
:200CBC00E081A08114480BF0CBF96178E08802090AD320F008000629E08005D10AF044FB9C
:200CDC000E480BF0BDF9E088810AFFF45FAE20F40070E0800A480BF0B3F902200DF17D0183
:200CFC0009F0D8F800287FF451AE032001210DF17D0208F039F949E6680C00208C0C00200E
:200D1C00B00C0020FA1E00200C0C0020C41E0020DFF800F00FC10110F8B5A0F201351746EF
:200D3C000E46022D40F214818A4A8B498B4B2D1F0F2D04D9143D4AD0AD1E1CD011E0DFE890
:200D5C0015F0C300BC00F400E400B300AB000701A2009A00100010009200880079006F0057
:200D7C006300282880F2F480022E40F0F180398809F09CFCF8BD012E40F0EA801546287921
:200D9C00012800F0E58051793878507181B9002800F0DE809078012800F0A980042800F068
:200DBC00A680062800F0A380052800F0A080F8BD3878002840F0CC809078032800F0A28025
:200DDC00072800F09F80052800F09C80F8BD012E40F0BE803878012840F0BA80154605F19A
:200DFC00F0000AF015FF002840F0B2802C46002004F13E0107F068FC002840F0A98004F1B8
:200E1C00CC000BF01FF9F8BD022E40F0A18038880A28C0F29D80B0F5486F00F3998015E083
:200E3C00022E40F095803888B0F5FA7F80F290800880F8BD022E40F08B8038880628C0F279
:200E5C008780B0F5486F00F383801946891C0D4638E0022E7CD13888062879DBB0F5486F93
:200E7C0076DC1946F3E7012E72D1387806286FDA891F0D460EE0012E6AD13878042867DAC2
:200E9C0015460B3506E0012E62D1387808285FDA15460A352870F8BD012E59D1387804281E
:200EBC0056DA1546093506E0012E51D1387804284EDC154608352946DBE7022E48D138883E
:200EDC00154612352946B3E7012E41D11546687901283DD011793878107161B9002837D094
:200EFC009078012803D0042818BF052830D101200AF0BEFCF8BD387850BB9078022818BF53
:200F1C00052825D10AF034FEF8BD154605F1870400211F22204607F057FC39463246204666
:200F3C0007F074F80020EE710EE0154605F1680400211F22204607F047FC394632462046A9
:200F5C0007F064F80120AE713146224608F074FCF8BDC0462C150020701500206C15002039
:200F7C00F8B5001D84B214F0030002D0241A241DA4B20AF0A8FB1A4A102C014657691161F1
:200F9C00C8BF9769388800221646C30BDD0319D126B984420ADD3A46012617E01388C31838
:200FBC009BB29C42138011DC174618469FB1001B80B20428B4BF3C88385344F400443C80EC
:200FDC003F1D08E080F40040002680B2C71938880028DAD1002708460AF0B2FC3846F8BDE2
:040FFC00301E002083
:201000003C000000000000000000000034100000000000000000000001000000000000004F
:1C10200000000000000000000000000001000000000000000800000000000000AB
:20103C003400000000000000000000006810000000000000000000000100000000000000E7
:14105C00010000000000000000000000080000000000000077
:2010700030000000000000000000000098100000040000000000000001000000FFFFFFFF87
:10109000FF00000001000000080000000000000048
:2010A0002C0000000000000000000000C4100000040000000000000001000000FFFFFFFF2F
:0C10C000FFFFFFFF080000000000000020
:2010CC0038140000E410000095A1011091A70110A1C2011009B2011041B8011000000000EA
:0810EC000000000032000000CA
:2010F400280000000000000000000000141100000000000000000000FFFFFFFF0000000093
:081114000800000000000000CB
:20111C00341400003011000065C2011069C101101BC2011091BA011000000000000000006D
:04113C00300000007F
:20114000341400005411000071C20110A5B6011099BF011045B601100000000000000000BD
:04116000310000005A
:201164002400000000000000000000008011000000000000000000000000000008000000AE
:041184000000000067
:20118800240000000000000000000000A41100000000000000000000000000000800000066
:0411A8000000000043
:2011AC00240000000000000000000000C8110000000000000100000000000000080000001D
:0411CC00000000001F
:2011D00000000000BC2300200400000000000000000000002000000070100000300000002C
:2011F0001C110000C42300200400000000000000000000000C000000301300001800000040
:2012100040110000CC230020040000000000000000000000240000004813000018000000C3
:2012300000000000D423002004000000000000000000000010000000A01000002C00000097
:20125000CC100000DC230020040000000000000000000000200000006411000024000000C6
:20127000FFFFFFFFE423002004000000000000000000000028000000881100002400000052
:20129000FFFFFFFFF4230020040000000000000000000000580000003C100000340000002F
:2012B000FFFFFFFFFC23002004000000000000000000000010000000601300001800000044
:2012D000FFFFFFFF042400200400000000000000000000001C000000AC11000024000000B9
:2012F000FFFFFFFF0C24002004000000000000000000000038000000F4100000280000002A
:20131000FFFFFFFF1424002004000000000000000000000054000000001000003C000000C5
:1813300018000000000000000000000040130000080000000000000032
:1813480018000000000000000000000058130000080000000000000002
:18136000180000000000000000000000701300000800000000000000D2
:0813780001000000D0D40000C8
:0413800006F0A4B817
:041384000100000064
:0413880000000E0053
:04138C0000000F004E
:041390003200000027
:041394000100000054
:04139800C822002047
:04139C00000200004B
:0413A0000000000049
:0413A400FDC901106E
:0413A8000000000041
:0413AC00000000003D
:0413B0000800000031
:0413B4000000230012
:0413B8009021002060
:0413BC00010000002C
:0413C000E022002007
:0413C400080000001D
:0413C8000000000021
:0413CC00000000001D
:0413D0000000000019
:0413D400080000000D
:0413D8000000000011
:0413DC00000000000D
:0413E0000100000008
:0413E400282200209B
:0413E80006000000FB
:0413EC0001000000FC
:0413F000FC200020BD
:0413F40000000000F5
:0413F80000000000F1
:0413FC0000020000EB
:0414000000000000E8
:0214040070472F
:021406002A00BA
:021408000100E1
:02140A002500BB
:02140C003000AE
:02140E003100AB
:021410003200A8
:021412000100D7
:0114140001D6
:081418000300000064D4000091
:081420000000000000000000C4
:0414280000000100BF
:04142C0000000300B9
:0414300083C4011060
:041434003C14000064
:041438003C14000060
:04143C0000000000AC
:041440009000000018
:041444009000000014
:0414480000000000A0
:04144C00E02200207A
:04145000E3BA0000FB
:041454002000000074
:04145800F8D30000C5
:04145C0014D30000A5
:0414600009C30110AB
:04146400C3A1000020
:0414680093A6000047
:04146C0095C801100E
:0414700097C8011008
:041474000000000074
:041478003FD0000061
:04147C000CD200008E
:0414800024D2000072
:04148400F4D100009F
:0214880008005A
:02148A00090057
:02148C0001005D
:02148E0000005C
:01149000015A
:041494000000000054
:041498000000000050
:04149C00000000004C
:0414A0000000000048
:0414A4006DC0000017
:0414A80025A6000075
:0414AC001DB300006C
:0414B00009AA000085
:0414B4009DAB0000EC
:0414B80045A100004A
:0414BC00B5890000EE
:0414C00033BD000038
:0414C4005994000037
:0414C8000DC801103A
:0414CC001DC8011026
:0414D0000800000010
:0414D40024000000F0
:0414D80018000000F8
:0414DC0028000000E4
:0414E00020000000E8
:0414E4003C000000C8
:0414E8000C000000F4
:0414EC0034000000C8
:2014F00021B1C968814201D1012070470020704738B505460AF072FD2C680CB12168296091
:201510000AF060FE204632BDF8B506460F46346800201546386034B90AF060FD376095B1F0
:20153000012129700FE005B128700AF057FD00E0246821680029FBD1BC4203D10AF042FE5F
:201550000020F2BD27600AF03DFE0120F2BDF8B50C6805460AF042FD0026074634B100F033
:2015700009F800B126462468002CF8D101F083F83046F2BD21462846B2E700213022DFF873
:20159000340C4A43104490F82F20130603D5491C0829F3D3002070472DE9F8438046894639
:2015B000164600273021DFF80C0C7943441804F12C05B5F90000484508D1214600F035F981
:2015D00020B1300008D0E878304205D17F1C082FE8D30020BDE8F2832046FBE738B5042852
:2015F0001BD1DFF8E04A04F1E40528460AF0BEFA98B128460AF0E4FCDFF8BC1B0A685043AC
:20161000B0F5967F09D228460AF0E0FC052009F07FFB0120E07701F003F9002032BD70B5B0
:2016300000F026FADFF8945B064695F8340020EA040485F834400024286820B19C300AF069
:2016500095FA00B10124686820B19C300AF08EFA04431FD195F83400002808BF002C19D129
:20167000A86AD0B190F820108A0707D5C46900F032FBA86A00220221A04708E0446900F095
:201690002AFBA86A00224FF400030021A0470020A86270BD304601F04FBD70BDF8B50023CC
:2016B0009E460AB94FF0010E002600291CBF8D6A002D6FF05047DFF804CB19D0446ABCB137
:2016D000C968C368994207D0DCF8003099420CBFDCF80860DCF80C60A408A4EB9504A61B31
:2016F000BE4229DA06F18056B6F1805F24D90123002A1CBF546A002C1BD0816AC9B1D268EA
:20171000C0680026904207D0DCF8000082420CBFDCF80860DCF80C60C6EB9406A6EB910670
:20173000BE4209DA06F18056B6F1805F04D94FF0010E03EA0E00F2BD0020F2BD884201D321
:2017500000207047012901D101207047022070472DE9F047DFF86C790E46B96A8046FFF7B9
:20177000BFFE002400254FF0010948B1B86A90F82E003146FFF7E2FFA146040018BFBD6A02
:20179000786AB0B1D7F824A010E0514600F04DF850B19AF82E003146FFF7D0FF4FF0000962
:2017B00008B10CB955460446DAF800A0BAF1000FEBD1B9F1000F18BF022034D1002C18BF14
:2017D000002D2FD0B86A2E4686420CD1B96A00F02CF840B1B86A90F82F1041F0080180F8CF
:2017F0002F107E6A5EB1314600F01FF828B196F82F0040F0080086F82F003668F2E7DFF85C
:20181000BC0900F13201C0F82880C0F82C8004F001048A7842F001028A70AA8D02860C70A6
:20183000012000E00020BDE8F087404658E62DE9F04F8DB00446DDF85880DFF83C7B002060
:20185000787388F80000894693469A46FFF795FE050042D001F0F3FAA8853868A04205D182
:20187000387BC10744BF00F0FE003873DAF80000A8629BF80C0000F00F0002280CBFDBF8FF
:2018900008000020B9F1000F686222D009F19C000AF06CF9002857D101F04AFA040021D12B
:2018B000706AF8B101F049FA0A90B06A20B1726AB16A00F055F838B9B06A98B9726A6946C1
:2018D0002846FFF7EBFE68B1706A286075620120787328460DB0BDE8F08F012088F800005D
:2018F0000020F7E7787B0028F3D114B9746A00E024685CB3226800F032F80028F8D02068B9
:20191000286025600220E3E7787B0028E1D1746A24B100E0246820680028FBD19BF80C10A7
:2019300001F08F010229D4D12CB1002200F017F80028CED108E0B06A0028CAD0B16A002280
:2019500000F00EF80028C4D10220C7E79AF804104846FFF7FDFE0128D6D10420B8E72146D5
:2019700028469BE670B5002009F044FDDFF854670FF22D51002200F067FED6E900450AF063
:201990005BF8844231BF041B401E041B641C307EDFF8E859240BF46000281CBF697D0129B6
:2019B00003D0307CC002A0422BD20121317600206875DFF8CC0901680A0622D540F60900D6
:2019D00028800021687B696000F0AAFC6873287B00F0F00028730AF001FBDFF8A8194A69B2
:2019F00022F002024A616FF002020A610D600B699C07FCD50A614A6942F002024A610AF0FA
:201A1000E1FB0020C6E90000F06008F087FC287D20B9F16B01F140000AF006FBDFF8201C26
:201A30000020086070BD10B500F022F8DFF858190A7814430C700AF0C5FB832010BD70B526
:201A500000F016F80646DFF840090178012559B1027822EA04040470007820B90821DFF810
:201A7000E40B0AF0EDFA832500F035F9284670BD04460AF0B3BA10B50446207B00F00F00CB
:201A900002281DD101F059F9A168081ADFF83416C96B8008002914BFC96840F6C41101F5A5
:201AB0007A72824238BFB0F1405F09D2401ADFF808170A68B0FBF2F0012802D8012010BD14
:201AD000002010BDDFF8FC250146906A00B9704710B5906A90F82F00C3061CD5506AD0B1F5
:201AF000506A90F82F00C30615D4906AC068536ADC68A0420FD111B1012908D010BDBDE898
:201B100010404FF4004102F144000AF099BA916A11630020906210BD70B5DFF8A865746A28
:201B30000120FFF7CFFFB16A002944D1002C3BD0E068F16B884218BF4FF4806135D1A068A9
:201B5000FFF799FF050015D0306B98B90120FFF776FF83282FD1F06B78300AF037FA06F1B5
:201B7000E404294620460AF02DFA2046BDE870400AF02ABAD4E90401DFF808285369034313
:201B900053610020D3680B43D360D061A0681060D0690028FCD006F12400FFF7A9FCB06207
:201BB0000020BDE870408DE7022106F14400BDE870400AF045BA70BDDFF80805C16B8A6851
:201BD00001F12803506830B1984218BF0246F9D101E000207047507B10F00F0F02BF488D45
:201BF00040F609018842F4D1012070472DE97043DFF8B00BDFF8CC5409F01CFE0446DFF8A8
:201C1000A80B01680668A86A06F4602668B1214089060AD5E862D0E9068949EA0403C0E93B
:201C300006834FF4005100F0DDF834400BD0DFF8EC0B81690C43846105F19400BDE8704395
:201C500000210AF0FDB9BDE8708370B50AF0C6F9DFF8C84B0646A06910F4602F2FD0A5694E
:201C7000ED012D0EE80748BF002506D4A80748BF012502D4680748BF0225681D002140B24F
:201C900000F06CFEA169012205F1110082409143A16100F020F804EB8506F06838B154F8FF
:201CB0002500691DF56800224FF00063A847DFF8F81A086828B90220FFF7C1FE01E000F077
:201CD0000AF8A06930B1BDE870400021DFF8D40C0AF0B6B970BD30460AF074BAF8B5DFF823
:201CF000E45309F09BFDAC6A002C024677D0100704D490075FD5286B00285CD10021A9626D
:201D1000D4E90401236A40F00A0632401A432262D4E906673243C4E90627DFF88C6AB26871
:201D30008243B2603268D4E904018A4332602146002205F13400FFF7E7FB022100F052F819
:201D5000286B00284BD0E168286BC268914246D1286B90F82F0094F82F10084310F0070046
:201D700018D0C10701D4810707D5286B90F82F1041F0010180F82F1005E0296B91F82F20D5
:201D9000104381F82F000022296B05F13400FFF7BBFB0DE0286BA8622A6BB368D2E90401B2
:201DB0000343B3602A6B3368D2E904010B43336000222A6313E0D4E9040102420FD0EC6214
:201DD000D4E90401236A02401A432262D4E906011043C4E906014FF4804100F003F8BDE822
:201DF000F14099E605F144000AF02AB9B548B0F93810B0F93A00814204BF0120FFF71FBEC1
:201E100070470720FFF70BBCF8B506460F46D6F868C014461D46BCF1000F18BFE047D6E99D
:201E3000180104400D400020854208BF844217D0802239463046FFF7AFFBC6E91C4538B15D
:201E5000D0E90623A243AB43C0E90623B16E41600020B06606F14000BDE8F2400AF0E4B851
:201E7000F1BD704780B50AF0E9F8964A0146D06B126CBDE80840104780B592480FF20D524A
:201E9000016C914206D10120FFF7CDFDBDE8024000F0CBBCBDE80440042144300AF0D0B8D8
:201EB00070B584B009F0BAFC864D0FF2E1410446286C884222D10022DFF8841BDFF85C6945
:201ED00005F178000AF09AF80120FFF7ACFD012068764FF6FF710020A876B08B884208D168
:201EF0000221ADF80010684609F040F9BDF80800B083FFF761FE08B9FFF70EFEDFF83C0CF3
:201F1000044203D04FF00051FFF76CFF7FBD80B509F084FC800707D5BDE804404FF480515D
:201F3000DFF820070AF08CB801BD10B5654C0146E06B4268506838B1012908BF08F0FAFF62
:201F5000E06B416848688047E06B42689068002804BFD168002914D0DFF8901B08680028CE
:201F7000FAD000230B60906800B18047E06B4068C06800B18047BDE81040DFF8B00C09F075
:201F9000F5B810BD70B54F4D6C6B002C7DD0A168202000291CBFC2B2002A7CD00A8840F6A7
:201FB00003039A421FBF40F604039A424968401EEFD16BE000224FF0804304E000224FF0B5
:201FD000805300E0002394F82F00010706D594F82F0010F0070F18BF43F08073B4F92C10C6
:201FF000E0686668B04709F0F9FF0646688F401CC0F30B0068870020696B81F82F0005F1F5
:202010003400FFF775FAFFF766FEB5F93A00B5F93810884239D1E26892F8C210052001B18E
:202030000720FFF7FCFA6548E3680268934208BF426893F8C200002100B91968002583F88D
:20205000C2504AB192F8C20010B182F8C25003E01068884228BF014619B9BDE8704001202F
:20207000EDE411F1010F10D053480268E068B1FBF2F1012998BF0121783009F0A3FFE06883
:20209000BDE87040783009F09FBF70BDE0681822283005F0C1FF226A002020626068002802
:2020B000A1D094F82F1001F00701012906D002293FF480AF04293FF481AF83E700224FF0F3
:2020D000005380E7482E002038B50D46A807DFF8604B18D5FFF756FF606B25F0020510B14F
:2020F00045F0020109E0680702D4606A00285FD004F1E40009F06AFF042104F14400BDE80B
:20211000344009F09DBF680752D5012084F82000042008F0FDFD09F08FFCC4E90001606A81
:2021300078B1C568E06B002818BFA84208D095F82000410704D5EB69002204212846984777
:20215000E563E06B4168DFF8EC0A0A780260022008F0DEFD112005F0BBFD0120A076E06B2D
:20217000017C002919BF207E00280E2005F0B0FDE06B844A40688168002904BFC068002855
:2021900004D00021D161DFF8A40B106040F2FF70DFF8AC14086000219161DFF8B00C50611B
:2021B0000FF21D0020641920BDE8324009F01EBF31BD0000C82C00203432002070310020FE
:2021D0002DE9F0430546880085B040F195800020FFF7ABFE6B4EDFF8AC0BDFF8549A674FD7
:2021F0000021F161306040F60A08012009F002F90FF29910C9F84000A7F80080002078808D
:202210000021387B00F0F00038737960787B00F087F87873AA681446618099F8181009B169
:20223000687CA0B1108840F60201884218BFB0F5C15F05D1218A4FF60F400140218204E045
:20225000218B4FF60F4001402183002068746946104605F011FA684609F0C8FC40F60401A2
:2022700040F60302606800281CBF0388434518BF934244D08B4218BF0446F3D13FE0288DEF
:20229000A8B100216985E96205F134004278017802F0F00201F0F00142F001020170427000
:2022B00005F128007860787B00F0F00078734FF6FF30A9680A8A02400A82F0690028FCD026
:2022D0000021F16199F81F00012806D108F044F80028FBD009F0A0FE0CE0012008F014FEF6
:2022F000012807D0607B00F01BF860730FF23D00C9F84000A868306005B0BDE8F0836760AA
:20231000607B00F0F0006073D9F8240080680088904218BF8842B2D10020C9E90000C6E745
:2023300000F0F00040F0010070470000DFF8202B114200D17047012010B508F0E5FD0128DF
:20235000DFF8EC4806D10FF245010C4821640D49086010BDDFF8582C10683221B1FBF0F12D
:20237000012998BF0121E434204609F02BFE2046BDE8104009F028BE98310020F4310020A2
:2023900000000440001004400A3200202DE9F84F07460C466004DFF898681FD509F01EFEF9
:2023B000F56A0146A5B12F6AB80711D400202862084609F007FF6868002818BF002F0AD005
:2023D000B5F92C10E8686D683A460023A84702E0084609F0F7FE24F4804427E1A0006FF447
:2023F000807940F6020557D596F8200028B1042008F080FA002086F8200009F0EFFD8046E5
:20241000B8680188A94218BFB1F5C15F00F026F9D6E900AB0020834508BF824521D0042077
:2024300008F072FDE8B1D6E9005109F005FB854231BF451B401E451B6D1C788AF96800EBD7
:2024500015308842F86002D209184908F96040F2D171F868A0F5FA70884224BF40F6C411DB
:20247000F96000F0F7FCFFF7A7FB58B1BD6900F0EFF8A847706A18B1192009F0BDFD01E013
:2024900044F002047D6900224FF0806300213846A84724F00054C9E0A00709D5FFF772FD3F
:2024B000706B002824F0020401D044F00204BDE060051CD509F092FD756A074695B1F06B9C
:2024D00010B1783009F082FDE868F06300F0D3F809F0B2FAB0604FF400610FF2A11030640E
:2024F00000F006FB0020707724F480649EE020073ED5707F012802D10021717735E0B06AFD
:2025100098BB0120F0760021DFF8AC0B71763064FFF728FA022008F0EDF9112005F07AFBF4
:20253000F16B087C10B90E2005F074FBF07F012804D10021F177052008F0DCF90020F076E2
:202550003077DFF8780B0178012904D100220270042100F0CDFAB6F93A10B6F93820022060
:20257000914208BF0720FFF75AF824F008045DE0A0040FD5F56A002D1CBF6868002806D028
:20259000B5F92C10E8686D6800222023A84724F400544BE0E00438D5FFF70EFB20B1D7F8A1
:2025B00018C000F055F8E0470022DFF8941400F04BF80020B07701207076B8680188A94219
:2025D00018BFB1F5C15F00F049F800207874B56809F032FADFF86825F36B17680421BB426C
:2025F00008BF00214DB1854231BF451B401E451B6D1C02F108002D0B45500020B06024F477
:202610008054192009F0F8FC10E020040ED5B06A816848880028FAD0B16A886841880129F6
:20263000F5D0192009F0E8FC24F4004434B1214606F14400BDE8F44F09F002BDBDE8F18F07
:20265000000004608C2E002006F1780009F0D6BC00224FF0007349463846704705D1028A38
:202670002D2161F3091202827047028B2D2161F3091202837047384609F0A4BDF0B5044605
:20269000080585B07BD5DFF8A865002070760120B077F06B90F820104A0703D5C3690022DC
:2026B000042198470022DFF8F81ADFF8F85AFFF7CBFFDFF8E40B3064F06B406881680029A3
:2026D00004BFC068002804D00021E961DFF85C0628600120FFF729FC0020E86140F60202F8
:2026F000DFF8A00628600020A16848800888904218BFB0F5C15F05D10A8A4FF60F40024096
:202710000A8204E00A8B4FF60F4002400A830120607440F6040240F6030340F60A0C4868D8
:2027300078B3078867451CBF9F42974229D00146F5E7208DA8B100226285E26204F13400F6
:202750004378027803F0F00302F0F00243F001030270437004F128004860487B00F0F000A6
:2027700048736946A06804F087FF684609F03EFAE8690028FCD00021E961A068286005B089
:20279000F0BD00204860487BFFF7CAFD4873706A80680088984218BF9042CAD10020B060E1
:2027B000DFE7000020000E000C10044038B5DFF88044A16A61BB606A78B3617E29B1012037
:2027D000FFF731F9BDE832402FE0A07E28BB09F005FC0546606A8068FFF74DF9E17E21B13E
:2027F000DFF8D828012010700DE040B1E4340146204609F0E7FB204609F0E6FB03E0A07F91
:2028100008B900F00DF82846BDE8324009F0DABCBDE832400020FFF755B931BDD431002090
:20283000042104F1440009F00BBC192009F0E4BB30B585B004F0C2F9DFF8880BDFF8884BBC
:202850000168DFF8EC5341F002010160684609F0DDF9A078DFF8741B02906A4605F14400DD
:2028700007F098FD684609F099F92178DFF8D42B019100208DF808006B46192105F178007C
:2028900007F078FC684609F0C1F9E078DFF8B81B02906A4605F1940007F07CFD684609F077
:2028B0007DF901208DF808006B466078DFF89C2B01901A2105F1C80007F05CFC002300229F
:2028D000DFF88C1B05F1E40007F0ACF9DFF8E807DFF8802B28640023042105F5847008F0F2
:2028F00059FCDFF8740B4FF6FF7181830021C177C5E9001129766983E96185F820100520A5
:2029100028740020DFF8541B08704FF4FA718C488160C16005B030BD10B5818B4FF6FF7280
:20293000914209D00024012202FA04F3194206D1641C64B20F2CF7DB6FF0010010BD9943C3
:20295000818304F10C00DFF8C81B0B6882401A430A600220FFF767F8204610BD70B5064691
:202970000C4609F03BFBDFF8F01A0546C87F420702D58A7F964214D001228B8B02FA06F043
:202990000343DFF88C0B8B830C36016802FA06F621EA06060660006818B914B10220FFF72F
:2029B0004EF8C8E3DC2E00202DE9F041DFF82C6C0546706A0C460027844290461AD1FEF71C
:2029D000D9FD18B394F82F0040F0040084F82F007F1C06F12400FEF78BFD0022214606F1F9
:2029F0003400FEF791FD746A5FEA0800E7D13846BDE8F081716A31B1086820B10A68A24241
:202A100001D00968F7E70C4600E02468002CEED02168FEF7B0FD0028F7D0216891F82F0083
:202A300040F0040081F82F0006F134000A6822607F1C0022FEF768FD5FEA0800E8D1D6E7AD
:202A5000ED1C00002DE9F0478246894602F001040327550809F0C2FA19F1010F05F0010531
:202A70008046734E08D1B16A5046FEF739FD00280CBF706AB06A04E0002249465046FEF703
:202A90008BFD70B390F82F100A0629D5B16A884215D190F82F100122A240114380F82F1004
:202AB000002C14BFDFF8380BDFF8380B08F05EFBA5B1716A2A465046FFF776FF0EE00146AB
:202AD0002A465046FFF770FF50B106F1E40009F07DFAB07E10B9022100F00AF8832700E099
:202AF000042700F0B7F93846BDE8F0871C10044006F1440009F0A4BA70B504460D4609F0A4
:202B10006DFA0646DFF8D40AC16B8C4201D0032070BD407E01280DD1284608F027FB04468B
:202B3000FFF7D9F804F0FF04012C01D1812070BD022070BDFFF7CFF8012070BD020000405E
:202B500070310020F0B50646DFF89C0A8BB015460029006818BF002D1C4663D00A78D040E4
:202B7000C0075FD571602846002104F0F1FDB56009F034FADFF8747A0546387D02284FDAB4
:202B900008B9FFF755FE387DDFF8641A41F82060401C387500F008FB34B903A80FF6882116
:202BB0001C2205F039FA03AC2068DFF8481A30600A466068F0600B46207C3074A06930620B
:202BD00001207074608A7082E06800B10246B261606900B10146F161A06800B103467361C7
:202BF000A02106F1280005F0F1FD002106F1400008F0CCF9684609F096F902966B4600224C
:202C1000DFF8F41906F1780007F00CF86B460022DFF8E81906F19C0007F004F8304602E0CD
:202C300000F0C2FA00200BB0F0BD000001000706482E0020D0210840F8B5DFF8B05904469C
:202C5000287D002871D0DFF89469B6F93800B6F93A10884211D000F06BF828B9B16A204642
:202C7000FEF73EFC48B1B06A38B1B0F92C1000224FF0E043204600F0A4F909F0AFF90746CF
:202C9000DFF86C0901688C4207BF0021016000214160287D401E2875C0B288BB707EF463FD
:202CB00001280FD1FEF7CBFE0220FEF7C8FEFFF7E2FC4FF0FF3104F1400008F001FF09F0F7
:202CD0008DF9074606F1440009F0B0F906F1780009F07EF906F1940009F0A8F906F1C80071
:202CF00009F076F906F1E40009F05EF906F5847008F0B0FB207C012804BF0E2004F08AFF6C
:202D1000F06BA04204BF0020F063FFF7B4FC04F1400009F083F904F1780009F045F904F147
:202D30009C00BDE8F24009F03FB9F1BD5100070606F124012046FEF70ABC70B509F04EF971
:202D5000DFF89828517E29B1DFF8B428146809F039FA14E009F036FA08F06EFE10F5003012
:202D7000DFF8A028DFF8846841F10001A2FB004502FB01553169002024184D412C4620461D
:202D900070BD000001010E042DE9F04782B082460F4691461D4609F021F98046FEF7EDFB56
:202DB000040046D00AF1780009F010F900F047F83087A760202104F12E0787F80090656048
:202DD000308FA085C4F80CA0DDE90A52DFF8380828401140C4E904016A4600207870C4E98E
:202DF0000600214606F12400FEF78EFB08B30AF1C000A18D018000218170787840F08000E6
:202E100078709DF80000012809D1317F00291CBF707E002803D0012100207177307700F0C4
:202E300019F89DF8000008B1FFF7C0FCB4F92C0003E000F00FF86FF00100BDE8F687DFF865
:202E50009C67308F401CC0F30B0070470A00004004000020404609F0B5B92DE9FE4FDFF83A
:202E7000906780460F4614469A4609F0B7F831688146884508BF716801A8029400903A4632
:202E9000029B4046FEF7D3FC040006F1320000900ED18178C6F8288041F00401817000F029
:202EB0003BFA9DF8040002285FD16FF002007DE008F1780009F08AF8DFF82057A08D288706
:202ED000A76004F12E0702980179DFF83C073970C4F804A0C4F80C80DDE90CAB20210AEA80
:202EF00000000BEA0101C4E9040100207870C4E9060002984179012903D1787840F01000DC
:202F1000787000F009FA0098C178042905D10278B6F93010F06A00F01AF909F05FF8814615
:202F30000098C078022808F1C00602D100F042F829E0012809D105F1E40009F047F800F0BD
:202F500039F8A86AF8B900F0E7F90098C078002818BF042826D10DF10502214605F1240025
:202F7000FEF7D2FA20B900F0D7F96FF001001DE0A08D30800021787840F080007870B170E3
:202F90009DF8050010B900F0C7F90DE0297F00291CBF687E002803D00121697700202877D3
:202FB00000F0BAF9FFF702FCB4F92C00BDE8FE8F34320020787840F0800078700021B1700F
:202FD00070472DE9F0410C46002C054616461F4601D500201DE009F02FF880468022214677
:202FF0002846FEF7D9FA040003D094F82F00010602D400F042F80BE094F82F0010F00F0F2E
:2030100009D000F03AF894F82F0010F00F0FFAD1022000212FE0D4E9060146F00A06304035
:2030300039400022914208BF904210D000F025F8D4E9060130403940C5E91C01D4E906232E
:2030500022EA000023EA0101C4E9060111E06168DFF8B805814202D06168A9666060C5E968
:20307000186700F00AF84FF0FF3105F1400008F027FDD5E91C01BDE8F081404609F09EB848
:20309000DCB500F01DF808BFDFF880352046FFF77BFE08E0DCB500F013F808BFDFF86C35AF
:2030B0002046FFF7DAFE0146204602B0BDE8D04000224FF0E04384E7D92000000B32002073
:2030D000DDE906670446CDE900671800704770B5FEF7CEFC0546DFF81415DFF800650120EB
:2030F000487504F19C0008F071FF00F029F804BF707E00280CD1DFF8F81491F8340038B1BA
:2031100000F052F80720FEF78AFA08F067FF054600F016F80CD104F1780008F057FF012065
:20313000FEF78DFC707E012805D10121317702E0012084F8C2002846BDE8704009F042B853
:20315000B6F93A00B6F93810884270477AE442F0020277E40FF2D0411C2204F05DBF00E0CF
:2031700000BF0022C8E470B5DFF87014CA6B90426FF07F0412D1487E80B108F02FFF0546FE
:20319000DFF88C0407F0F2FF064600F00DF806F0FF00012802D13602301670BD204670BD60
:2031B0001F1F000000100440284609F00BB800002DE9F0410E461446832508F00FFF032E6F
:2031D0008046DFF8187465D8DFE806F002071114B86A50B1B96A888D05E09F48808B4FF617
:2031F000FF71884201D0208055E0802553E0787E207050E024685021204605F0E7FA0021F7
:20321000DFF8EC23080152F82130235004F10C0E0C234B431344491C1E7E0EF80060261DD4
:20323000D3F814C046F800C001291B699C4404F1080343F800C0E5DDB86AA0B1BA6AD368C4
:203250000801491C235049B2BA6A92F82E3004F10C021354BA6A536A221D1350BA6A936A68
:2032700004F108021350786AA8B1042913DC0A01C368A35004F10C0790F82E30BB54271D1B
:20329000436ABB5004F10807836ABB50491C006849B2E9E7032536E19D23000080B58022FC
:2032B000FEF77AF900B1806802BD2DE9F8430446CA480D46417E807F01431E4608BF6FF0B2
:2032D000010027D00A2129806A60DFF88C814046FFF722FB0746781F03281AD2AF7008F0B9
:2032F0007DFE8146284607F041FF054600F014F805F0FF05012D06D108EB870040F8086C6C
:2033100040F8144C05E001213846FFF727FB6FF001073846BDE8F283484608F053BF2DE9BB
:20333000F8430446AD480E46417E807F0143904608BF6FF0010038D0474F3846FFF7ECFAB8
:203350000546681F03282FD208F048FE2A02814602F4706216434FF6FC703040AD490843AB
:2033700007F004FF00F0FF00012815D1F0040CD5A94901230A6805F10C0083409A430A60DC
:20339000BD77F87F40F00400F87707EB850040F8144C40F8088C05E001212846FFF7DEFAB1
:2033B0006FF00105FFF7B8FF2846BDE8F28310B54FF6FC742140BDE81040984B0022194332
:2033D000FFF79ABB00200940AED40000751E000070B582480C46417E807F014301D10120DE
:2033F00070BD1D48C17F4A0707D5837F9C4204D101F0FB01C1770021817708F0EFFD05469C
:2034100001212046FFF7AAFA4FF6FC7000EA042040F0816040F0010007F0A8FE06467E48CA
:20343000012201680C3402FA04F421EA04040460FFF7BAFE06F0FF06012E01D1812070BDCD
:20345000022070BDB11E00005B1C0000FD1B0000891E0000ED150000D43100200A32002085
:203470002DE9F04107460C46154608F0B7FD5B4EB17E8046707E0143F07E0143062C41D882
:20349000DFE804F004070D10131F2D002868386036E001207874F8686030F86030E02868A7
:2034B00078822DE0286830742AE0286818B98020FEF7B9FA24E0012824D18020FEF7BFFA9E
:2034D0001EE0002904BF706A00280DD12968192008F096FD29681A2008F092FD10E0002952
:2034F00004BF706A002801D000250CE0296806F1440008F0A9FD296806F1940008F0A4FDF6
:20351000832500E00325FFF7A5FC2846BDE8F0810C1004402DE9F84F0E46814630684FEA27
:20353000900A3F48824502D2307A022801D003202DE008F053FD2E4C8046606800278145AD
:2035500008BF012787F0010054F82050B9F1000F04F1320B04D009F19C0008F007FB58B9D8
:20357000BDB105F19C0008F001FB28B902212846FEF7EEF805000DD19BF80200C4F828900E
:2035900040F002008BF80200FFF764FC0020BDE8F28F02250C204743E01931680161317A4C
:2035B000017620480168BAFBF1F1012998BF012109F19C0008F006FD09F19C0008F004FD59
:2035D000FFF748FC012D06D19BF80020B4F93010E06AFFF7BCFD8320D9E70000482E00200A
:2035F0000100020401000104D4210840F431002070310020731E0000FD1D0000131E00008F
:203610000430044000093D00FDEFFF9F191E000001000304010003060810044001000406A2
:2036300041420F0034320020FFFFFFFFC4090000000000000000000001003A01000000005D
:20365000000000002DE9F843089C582B804617460CBFBDA5C1A5002908BFB8F1000F05D1AE
:203670002068411E2160302707702AE04FEAE7793E460246083E13D0083E0DD0002908BF59
:20369000B2F1FF3F04D94B463A4602F067F90BE0B2FBF7F0002107E008071209090902E054
:2036B0004807D208C9081043226800FB1783561E0029EB5C26608046137008BFB8F1000F5C
:2036D000D6D1206808F0CCF9401EBDE8F8837CB51446002806460D460094B8BF404264230A
:2036F0000A22C117FFF7AEFF702D0BD0502D09D00A2E09DA16F10A0F04DD2068411E2160C1
:2037100030230370002E01D42B2100E02D212068421E226001702068411E216005707CBD65
:20373000F8B517460D46044608F09AF9024629460020002903DD8A42A4BF0819401E27B1E1
:203750001D686E1E1E602E272F708A4208DA8F1A302511461A68561E1E607F1E1570F9D173
:2037700000290CDD84420FD8071B7F1C196810F801294C1E1C607F1E0A70F7D1F8BD186810
:20379000411E196030270770F8BD2DE9F04F04461546A868ADF16C0D0028199302D003D51F
:2037B000062000E00120A860884630210FF2043B8DF800109BE80C00471C2046414604F003
:2037D00003FFA14638BF88F00048002612E03020087059E09AE80C0003F093FC761E8846AE
:2037F000814611E09AE80C00484602F0A1FF761C88468146C9A20CCA414604F028FF0FF248
:20381000143AEFD300201A909BE80C00484604F0DBFE09D01A9CC3A20CCA484604F0D4FEB6
:2038300038BF0124002CD5D1484606F0AFFA83460DF1010105F062FF841900EB0D018742DF
:2038500001F1010619DD3F1A584607F0D7FA0B4602464146484602F01DFD9AE80C0003F06F
:2038700050FC8846814606F091FA83460BF130007F1E06F8010BE7D101E06F447E1C16F846
:20389000010D35280ADB314611F8010D401CC2B23A2A08709BDA6F468F4204D01A980DF10F
:2038B0000107307003E01A98641C06F8010C14F1030F09DBA868A04215DA022C04DB1A9895
:2038D000641E24181A9406E0002C05DC1A98C4F10104001B1A900124287B199A801EC1B2BC
:2038F0001A98FFF7F4FE384608F0BAF80026401E844219DC021B521C002803D4395C30293F
:2039100001D004E0302116B92B681B0908D3DDF864C0DCF800305E1ECCF8006001261970E3
:20393000521EA0F10100E7D12868002200F00800304318BF0122199B21463846FFF7F0FE29
:203950001BB0BDE8F08FC0463031323334353637383941424344454600C046C03031323334
:2039700034353637383961626364656600C02DE9FE4F0D99441C9946924601900FF2341BDA
:2039900000940C9F029130210170194610469BE80C0004F019FE38BF89F00049002512E064
:2039B0003020087054E098E80C0003F0AAFB6D1E8946824610E098E80C00504602F0B8FEFB
:2039D0006D1C8946824655A20CCA494604F03FFE0FF24018EFD37F1C9BE80C00504604F05B
:2039F000F3FD0AD04FA20CCA504604F0EDFD4FF0000638BF0126002ED5D1504606F0C6F930
:203A10000646214605F07AFE041941190298EF19002F016017DD304607F0F0F90B460246EA
:203A30004946504602F036FC98E80C0003F069FB8946824606F0AAF9064606F130007F1E0A
:203A500004F8010BE7D114F8010D352810DB214611F8010D401CC2B23A2A0870A0DA0198F7
:203A7000884205D10299019A08680092401C0860002100982170BDE8FE8FF8B516460D46C2
:203A9000044607F0EDFF324629465118491E521E0FD4521C002903D48842C8BF665C00DC82
:203AB00030261D686F1E521E1F60A1F101012E70F0D1F8BD0000000000000000F0B51546F7
:203AD000AF681C460246ADF5FE7D002FADF1100D44BF0627AF60266802A800970B4601901E
:203AF00003A8FFF744FFAA68029923460746FFF7C4FF20680122B04203D12868000938BFB5
:203B10000022029938462346FFF70AFE7FB004B0F0BDC04600000000000024400000C0FF3A
:203B3000FFFFDF41000000000000F03F2DE9F0471646B4689A4688460746ADF1700D002C21
:203B500044BF0624B4600FF2E42999E80C0004F07EFD4FF000050DD90FF2D82999E80C0051
:203B7000384604F031FD05D9B4A20CCA04F02CFD12D11FE099E880010EE099E80C00384691
:203B900002F0D6FD6D1C07460FE099E80C0003F0B8FA6D1E88460746AAA20CCA414638468C
:203BB00004F012FD0FF2A429EFD399E80C0004F04EFDE2D9009402A80B463A46019003A890
:203BD000FFF7D5FE04460298022809D1401E0290204607F045FF6D1C0021201800F8011C9C
:203BF000317B28465246FFF772FDB268029920465346FFF742FF204607F032FF0299012267
:203C1000884203D13068000938BF002220465346FFF786FD1CB0BDE8F0872DE9F04F07463A
:203C300016460020ADF17C0D1B9380A4009094E80C00384604F00BFD88460FF200290CD990
:203C50007CA494E80C00384604F0BEFC05D999E80C0004F0B9FC02D109E094E8800141462C
:203C700038466A4605F094FB0098401E0090307BB5680024A0F14101B5F1FF3F1D9108BFE4
:203C90000124A24641280CBF744875481E9030208DF8080099E80C004146384604F094FCB9
:203CB00038BF88F0004899E80C00414604F08CFC0CD0384601AA05F06BFB019A41463846AD
:203CD000C2F1010203F080FE88460746384606F05DF883460DF1090105F010FD044658460E
:203CF00007F08CF80B4602464146384602F0D2FA0FF2601B04EB0D021C940746BAF1000FAC
:203D100002F1090451D16D1C15D09BE80C0003F0F8F98846814606F039F81E99095C04F8BC
:203D3000011B07F06BF80B4602464146484602F0B1FA6D1EE9D11D9F641E002F14BF484B9A
:203D5000464B2178184607F038FEC01A082831DB254600271D986D1E002814BF404B3F4BA6
:203D70002978184607F029FEC01A401C1028B4BF195C3021102829701CDB2F70EAE79BE8B4
:203D90000C00384603F0BDF90D46074605F0FEFF1E99095C04F8011B07F030F80B46024662
:203DB0002946384602F076FA074699E80C0004F00BFCE4D10025307B2570412814BF7021E8
:203DD00050211B9A0098FFF782FCB068B0F1FF3F05D10DF1090007F043FE401EB0601C9972
:203DF0001B9B0DF1090402462046FFF746FE3168B0682A4601F00801084318BF01221C99F5
:203E10001B9B2046FFF78CFC307B412814BF782158211B980268531E0360117001683027CD
:203E30004A1E02601FB00F70BDE8F08F000000000000F07F000000000000F0FF00000000D8
:203E500000000000000000000000F03F0000000000002440000000000000304058390000BE
:203E70006C3900002DE9F04F05462B6816460C46ADF5FE7D1846ADF1600D07F0F1FD4FF002
:203E9000000A01468B96184693945B1883428C9340F24A84CDF844A2CDF824A251469291D4
:203EB0008A919691B84A959294924FF0FF360396899901910F468DF8107002970778252FDA
:203ED00008BF0A1C10D0002F00F02E842968491C296000788B9905F064FC286807780AF1BA
:203EF000010A252FEFD1019A2868939C401C286011E042F010020AE042F0010207E042F0E8
:203F1000020204E042F0080201E042F0040201922868401C286028680178B1F12000F4D0BE
:203F3000C01EEFD00838EAD0801EE5D0C01EE0D02A291DD0969986A80A2204F04BFC286865
:203F5000017830290BDB86AA3A2908DA0146401C2860097802F8011B01783029F4DA9DF82D
:203F700018722E68B7B186A805F0A2FD029011E0E41C24F00304241D54F8040C002803D5AC
:203F900042F0010201924042029020462E689390761C2E6030782E2831D12868401C286082
:203FB00000782A281FD0969986A80A2204F012FC2868017830290BDB86AA3A2908DA0146A9
:203FD000401C2860097802F8011B01783029F4DA9DF818722E68002F08BF8A980DD086A8DE
:203FF00005F066FD09E02E68E41C24F00304241D761C939454F8040C2E6003903078019F00
:204010004C381FD01C3811D0001F21D12E68761C2E6030786C2803D047F04007019717E005
:204030002E6847F48077761C2E60F7E72E68761C2E603078682818BF47F02007EED147F48D
:20405000007701E047F0800701972E68761C2E602868401C286030786E288DF8100000F0B5
:204070002E83732800F0E2820DF21520029E059020214FF4FF7206A804F0ACFB6E441836E9
:2040900005988D968A9901700B468E930DF5057C8F938B4690939DF81070CDF814C0384685
:2040B000642814DC642821D0253800F0B4821C3800F00D81001F022840F20981133815D06D
:2040D000093800F00481801E00F0EC8172E16538022840F2FC80001F08D0801F012805D9BA
:2040F000801F18BFB0F1030040F064810399002904D4019820F01000019002E00120039004
:204110000146B7F1580007D0173807D0401E03D0083818BF0A2202D1102200E00822702F29
:2041300077D00198D946D84600F4EC60203852D0203842D0C03829D0B0F580700DD0B7F123
:20415000580066D00C385BD0401F59D0801F60D0801F5ED0C01E5CD065E0B7F158000AD005
:204170000C384DD0401F4BD0801F04D0801F18BFB0F1030057D1E41C24F00304241D14F837
:20419000048C4FF000094DE0FFFF0F00B7F158000AD00C3808D0401F06D0801F04D0801FC0
:2041B00018BFB0F103003ED1E41D24F007040834A4F1080090E8000334E0B7F1580028D0E5
:2041D0000C381DD0401F1BD0801F22D0801F20D0C01E28D11DE0B7F158000AD00C380FD063
:2041F000401F0DD0801F04D0801F18BFB0F1030019D1E41C24F00304241D34F8043C0EE046
:20421000E41C24F00304241D54F8043C4FEAE37907E0E41C24F00304241D54F8043C4FF003
:20423000000998469394CC1743464846194350EA040608BF002903D101990C09C0F04881DA
:20425000642F18BF692F08D1002806DA01265B424FF000018F9661EB000005A90091014670
:2042700018463B46FFF7EEF90399401C814227DA9DF81070782F03D0582F18BF702F11D148
:20429000019908090FD3702F08BF7827059807700598401E05903021017005989DF8107064
:2042B000401E059001996F2F40F012810809C0F00F8105984278302A00F00A813021ECE066
:2042D000059930220A700599491E0591CCE73846A0F16101192998BF20385E46B84208BF4F
:2042F0000126E41D24F0070408349394083C94E8030047F6F07347F6F07E03EA11439E45D2
:2043100010D1949C0A4600231200134300221C4040EA02024FF0FF3303EA020208BF002AA2
:2043300040F0A1805FEA0B0440F09D8073460FF2C42C03EA11439E450FD1959C0A46002325
:204350001200134300221C4040EA02024FF0FF3303EA020208BF002A33D05FEA0B0430D18A
:204370009CE80C0004F030F93CBF81F000414FF0010BB7F141021FD0121F15D0521E0ED04A
:20439000521E07D01A3A17D0121F0DD0521E06D0521E0FD101AA05ABFFF7F7F908E001AA13
:2043B00005ABFFF78BFB03E001AA05ABFFF7BEFB9DF8107001998BE001AA05ABFFF72DFC40
:2043D00029E09CE80C0004F0FFF826D3002E14BF4621662105988DF81412002EA0F1010059
:2043F000059014BF4E216E2101700599002EA0F10100A1F10101059114BF49216921017016
:204410000599491E05912B2700F8017C05984FF0030B401E0590019958E0002E14BF462113
:20443000662105988DF81412002EA0F10100059014BF4E216E2101700599002EA0F10100A8
:20445000A1F10101059114BF4921692101700599491E05912D2700F8017C0199DDF814C043
:204470004FF0040B2FE0002E14BF4E216E2160468DF81412401E002E059014BF41216121A7
:2044900001700599002EA0F10100A1F10101059114BF4E216E214FF0020B01700598401E8A
:2044B000059085E7E41C24F003045E46241D14F8047C939407B901268DF814720199909686
:2044D00021F0020101916046401E05909DF81070059A752F02F101002BD06F2F29D0782F08
:2044F00027D0582F25D0702F23D05FEA0B0703D07F1E1ED101238F9301F002038F9F8E9362
:204510001FB98B0808D32B2100E02D211170059A0199401E521E05928E9E374309D1CA085A
:2045300007D3059920220A70059A0199401E521E059249080ED20599029AADEB010303F29D
:2045500015239A4206DB8D9C06AA891A6418A4F5FE7400E006ACA446401E4FF4FF7110F8BE
:20457000017F0CF8017B1FB1491EF8D1DDF858C2909ACDF814C022B18A9960460170401C10
:20459000059005988D9981420AD38846A8EB00022021401E521C04F01DF98A9888F80000F7
:2045B000019840092AD306A8A0422ED006A8221A302106A804F00EF99DF81000782810D075
:2045D00058280ED070280CD08E9F8F9E374302D10198C00819D320788DF8180030272770E2
:2045F00013E00198000910D360788DF81900302767700AE0000000000000000006A8241AB9
:204610002021224606A804F0E5F806A807F028FA909A121804E047A00188012206AF398062
:204630008B9906A805F0C2F8824478E0039BE41C24F00304241D54F8048C9394B8F1000F16
:2046500038D0029E002B06D4404607F009FA984288BF181C02D8404607F002FA0446B44235
:20467000A8BF061CB244A6420ADD780808D2371B002F05DD8B99202005F093F87F1EF9D1D4
:20469000002C07DD274618F8010B8B9905F089F87F1EF8D10198A64241DD40083FD3361B27
:2046B000002E3CDD37468B99202005F07AF87F1EF9D134E096988B9905F073F82FE007F424
:2046D000EC67B7F1200021D0E03814D0B0F5807008D0E41C24F00304241D54F8040CC0F8E5
:2046F00000A01BE0E41C24F00304241D54F8040C80F800A012E0E41C24F00304241D54F8A5
:20471000040C4FEAEA7B80E8000C07E0E41C24F00304241D54F8040CA0F800A093942868D9
:204730008C9981423FF6C1AB7FB0504618B0BDE8F08FC046250070472DE9F04F0120ADF139
:204750005C0DADF81A000827ADF8187006A806F001F800263546DF4C8DF854509DF81C0082
:204770006070A6700898E0614FF6FF70A082384606F010FE5FEA00080CD00121122207F090
:20479000C9FA06F017FE15A90123D64A0091414605F078FE9DF85400DFF86C83324601236B
:2047B0002070414604F1A80005F084FA04F1CC0032460223414605F07DFA04F1F000324614
:2047D0000423414605F076FA042031461022E07004F1480003F0FEFF04F158003146102276
:2047F00003F0F8FF2562267266720720E67204F148021021A072022006F096F804F15802D2
:204810000320102106F090F8042004F12002014606F08AF819E0A078B4F84050B4F8423051
:20483000B4F84420B4F8461006280ED1ADF84250ADF84430ADF84620CC48ADF8481007F0E6
:2048500007FC012010A903F045FF0A20ADF80A00ADF808704FF0FF35039502A805F07AFF1B
:20487000002840F0E38130460C90ADF824700925ADF8265009A805F06DFFDDF82C9000280D
:20489000CDF8309040F0D281BDF82800102840F0C18160789DF82A10884240F0BB814D4609
:2048B00028884FF6FF71814200F0AC812B78A23B00F091812E3B40F0AD81A878B04600281C
:2048D00000F05E81801E00F03681401E012840F20B81801E00F0B980401E7FD0401E60D06D
:2048F000083800F06981801E40F06B8194F83E30A888052BADF834004BD001208DF83E00A2
:204910009A4807F0A5FB94F83E00012820D004281ED003280DD002280BD00C98C188ADF872
:2049300036100189ADF838104189ADF83A1080892BE0B4F84000B4F84250ADF83600B4F82C
:204950004430ADF83850B4F84600ADF83A301CE0B4F84000E9888842D8BF081CADF83600EC
:204970002989B4F842008842D8BF081CADF838006989B4F844008842D8BF081CADF83A00DF
:20499000B4F84610A889814200DC0146ADF83C1001E08DF83E60B24A0DA8122106F079F8AE
:2049B0000FE1B04807F054FB6878002840F00981E888E08228892083688960836B4807F053
:2049D0002DF9002840F0FD80A56A002D00F0F9802B68E08A218B628B9847F2E0B5F804A08F
:2049F0000A2006F0D7FC5FEA00080AD00121152207F090F9A8F808A006F0DCFC414606F01D
:204A100057FABA483146062203F0E4FEE68226836683A8796073554807F01AFB914807F058
:204A300017FB4FF001084FF6FF706379A0824BB9A879082814BF04200520A070404606F05D
:204A50001DFFBEE00320A070BBE06878002843D1A649281D02680A60808888800623A3704E
:204A70006889A082E889E082288A2083688A6083E878207394F83E00012818BF022808D156
:204A90001F2005F097FB4FF47A714143374805F089FD95F803B0B5F80AA0142006F07AFC5D
:204AB0005FEA000800F090800121142207F032F988F808B02D1DC8F80C50A8F810A0042009
:204AD00088F8120006F076FC814A414605F0BCFC7AE0C0462C150020687831286AD1267101
:204AF000042022E017BD00006878002862D1A878618AA278032813D02079657931B90128B4
:204B100014BF6671267107E08DB80000054303D0724805F047FDA278072AE1D1062004E003
:204B3000062A06D0207910B90320A0704CE00220FBE70720F9E7687800283BD1EB78A07804
:204B5000E179ABB9022818D0072816D0062802D16179012911D103280FD0604807F05EF87A
:204B700058B9012006F08AFE07E0C046F81500205F4A404604F066FE68706878D0B920E093
:204B90006878B8B9564A0220102105F0E7FE554A0320102105F0E2FE5648ED1C2968016086
:204BB000AB888380544A01252846A179A57004F049FE48B1A77007E0A888464A102105F036
:204BD0004FFFB8F1010F25D1606A18B3016809B3A07888471EE0687913281BD12889012847
:204BF00008D1A07B022805D11E4807F031FA05F03DF80FE0052005F0DDFA0146194805F082
:204C1000D1FC07E06888C00B04D3374A0420014605F0A4FE0C9848B1ADF810700320ADF831
:204C30001200CDF8149004A805F094FD208A65792179420831D320F0010055EA0103208251
:204C50002BD08DB92D49207A8DF84A00657A8DF84B500A6813AB1A608988998007E0C04664
:204C700067BF00001C16002003208DF84A00A07AE57A194A8DF8520006218DF853500DF1BA
:204C90004A0005F051F9616A30B1A77021B1086810B1096838468847208A810807D3184989
:204CB00020F002002082304603F014FD208AC108FFF4CBAD20F00400A57B2082681E3FF449
:204CD000AAAD401E7FF4C1AD04F0D0FFBDE5C04609BD00008BBF00007FBF0000D41500206C
:204CF00074150020841500204C15002064150020B315002058150020941500205E15002057
:204D10006A1500202DE9FE4FE54980460122A1F130000260DF480768002FFCD0DE4ADF4E60
:204D3000C027E048E04B17603268920808D2324652F8042C03F14104120C42F0F0022270A5
:204D50004FF0000A8346C1F800A0DFF864C3DBF80810D64D0191880E43D2480E41D3802085
:204D700018744FF6D802A3F8512018702868C0F30464162CA8BF203C1F460F3F387800F0E1
:204D90001F001628A8BF2038844223D0624602F1980EDA4ACEF800A0261A022E05DC16F10B
:204DB000020FB8BF6FF0010600E002263018166800F01F06844246F4F856A7F866604FF020
:204DD00001061660E8D11068374617601068CEF80060106828460068C0F30420162808DB3D
:204DF00006E0A5F1D0000068C0F30460162800DB203800EB2170401C162805DA10F10A0F58
:204E1000B8BF6FF0090000E01520DE4F00F01F0040F4F850A3F85900386880083ABFEA488F
:204E3000C0F800A041F04061019E6246A5F13804C80E8F0E80F0010000F00100106087F063
:204E5000010000F0010090602068C0F38367C0F38F21B00C23D2304640F3072000280BD54F
:204E700042425046490805D17F0806BF0127391C4FF6FF71521EF5D1002810DD4FF6FF7262
:204E9000490041F001018A4207D27F0047F001070F2F92BF01210F27111C401EF0D141EAC5
:204EB0000741182005F0D8FC2068D24E2768C94CA6F10409C0F3870107F0030041EA002128
:204ED000D9F8040040F2FF3253468FB22C21466800972746A7F14000B0470C3D2868C0F356
:204EF0000D011C2005F0B8FCB84955F8080C014000F07C400143142005F0AEFC55F80C1CD4
:204F100001F47C000904090C0143102005F0A4FC624955F8042C0968C2F30350C2F3034547
:204F3000490813D2DBF800100B0510EB237003D41028A8BF0F2000E05046090415EB2175EC
:204F500003D4102DA8BF0F2500E0554645EA001502F47F4002F0FF01B8F1220F40EA0540E3
:204F700041EA000124BF02F0804211430C2005F073FC974DB8F1220F32BF01202868C0F367
:204F90000070B8F1220F4FEA400040F0200084F8090126BF2868C0F3407001208E4EB8F1EA
:204FB000200F40F0100084F8090138BF514606D33168C80C00F44070C1F38451014328205F
:204FD00005F04AFCB8F1200F26BF3068C0F301505046B8F1220F4FEA400040F0600084F838
:204FF0000C0126BF2868C0F3C0605046B8F1220F4FEAC00040F0800084F8010126BF286840
:20501000C0F345505046B8F1200F4FEA800040F47C40A4F89C0138BF70490AD330680103BF
:205030008A15920501F47C1100F00F00114341EA0031082005F010FC4FF48000A5F1D001A6
:205050002060674A886D40F21E236FF31F40834216D90868030E13F00F0F03F00F01C0F3DA
:20507000034018BF491E072805D006280EBF0720801C00F00F0041EA0011A2F10800017096
:20509000DDF804C0CCF381477F1E13D07F1E3BD036E0C0469402224300600C40B03F0050B6
:2050B00040100940AC3F005015620840881300500000204328460068810C21D24FF48041A5
:2050D0002160D2F80210430AC0F3033703F0800321F08F010B4347EA0301C2F80210D2F8F9
:2050F0000130060A66F30303C2F80130116800F0E70721F0E70147EA010004E02C2009401A
:205110004FF00040224610603B480068C0F3C0070FB94020A0624FF400702064286840276B
:20513000C0F3C14040F0300084F8C800CCF3815050B3401E03D0401E1FD002211EE00120B4
:2051500005F0E2FE06460420314603F0D7FF042005F0DAFE8642FAD12248066826F07F4089
:2051700005F0A6FDD9F81400036807214FF06022300E98474FF4806020600321042003F053
:20519000BDFF08E0000009400420012103F0B6FF154805F08DFD203D2868144947F61806A3
:2051B00000F03F0084F8CB0F144B0E80D9F800201868D1680220884711480D4D0760012196
:2051D0002960BDE8FE8FC04694042A43FCFCFC008C13005040A00C409813005000803F40F0
:2051F0000A600840A83F0050BD37860070B00C4094046042A4010010B03F00502C2009400D
:2052100000600C40BA482DE9F84F0025B94CB749056094F8E200002800F06381012800F061
:205230002F81B54E02283CD0032840F05A8151F8250CD4F8B8100029A0F5C060C4F8D400C3
:20525000B8BF49420028B8BF4042814226DA4FF08057D7F8A4014568B4F8BC0030214FF425
:205270007F42082300903046A847D7F8A4014568B4F8C00004214FF4F80212230090304613
:20529000A847D7F8A401B4F8D070456820214FF440620A2330460097A847012584F8D850E9
:2052B0001AE151F8258C06F099FD2F4600B901273946924F38680028FCD0B146012609F1FB
:2052D0000409D9F82CA03E6009B106F08DFDCAF30720C4F8BC0006F081FDAA4600B9B246CB
:2052F0003B68002BFCD0D9F800B0BAF1000F3E6001D006F079FDCBF38440C4F8C00006F0FA
:205310006DFDAA4600B9B2463B68002BFCD0D9F81C90BAF1000F3E6001D006F065FDC9F31E
:205330008120C4F8D000B8F5C061C4F8B81000F09C8094F8D80068B9C4F8D410D4F8C00021
:20535000C4F8C800D4F8BC70C4F8C470D4F8D030C4F8CC30D4F8D410D4F8BC30002954BFA9
:2053700002206FF0010004F1C802176801EB41014018411000EB917107EBA1001060D4F8CA
:20539000C810C4F8C43000291CDD1E293CDDD4F8CC0030B93429B4BF15391E21C4F8C81081
:2053B00025E02A29BABFD4F8C8000B381E20C4F8C800D4F8C4003F28B4BF401C3F20C4F892
:2053D000C4001FE0D4F8CC00032812D011F10B0FC6BFD4F8C8000B30301CC4F8C800D4F849
:2053F000C4000028C4BF401E051CC4F8C450032508E011F1150FC6BFD4F8C8001530301CFF
:20541000C4F8C800C4F8CC504FF08057D7F8A401B4F8C43030214FF47F42456836480093E3
:205430000823A847D7F8A40104214FF400321123456831480096A847B4F8C860D7F8A4010D
:2054500004214FF4F802122345682B480096A847D7F8A40120214FF440620A23B4F8CC6061
:20547000456825480096A84701E084F8D85040F2FF50404502D8801C40452DD208202EE0C2
:2054900051F8251C1E4F4BF2F5204843060A3868C0F3814001280AD105F054FE04F020FFA6
:2054B00006F0A8FC3111C010484306EBE03694F8E50030B91348006820F07F4080194608CB
:2054D00001E084F8E5501048310C0660012741600E4D8760287808B90B2000E0052084F817
:2054F000E40000F0B3FFBDE8F88FC0462D400C402C500C401C1D002000A00C4000800C4052
:20551000B43F0050102009403C600C4085D300002DE9F047DFF80CA20746AAF13500DFF8B9
:20553000F8810068800880F0E78005F00BFE814908310B6800261C17641C990D0AD2C0F19B
:205550003E0110F10A0F4FEAE101D8BF08218C42B8BF0C1CDFF8C4C1990E0FD2590E0DD36F
:205570006246143A1168C1F304211629A8BF20391268C2F30462162A0EDB0CE0634AD2F8B3
:205590007C11C1F304611629A8BF20391268C2F30442162A00DB203A61189146162905DAFE
:2055B00011F10A0FB8BF6FF0090100E01521584C584D01F01F0242F4F85222802A6812F0B9
:2055D000030F18BF0126D20828BF46F002060FB146F00406424692F90740041B052C04DA24
:2055F0009479B44208BF918866D00F28A0F10F0827DB08EB0014A4F1F0084FEA282EBEF1CF
:20561000070F88BF4FF0070E7546062D88BF06255CF82570042404EB850465462C59E41BB1
:2056300004F0FF05F70824BFC4F307273D44B70824BFC4F307473D44770828BF05EB146523
:2056500001E00025AE465CF82EC0F7080CF0FF0424BFCCF307273C44B70824BFCCF3074701
:205670003C44770828BF04EB1C64ADB2A9EB0101A8EB0E277D43002905F1800504EB15247C
:20569000D8BF012103F0FF0334254D43A9B259434FF6FF73B1FBF4F18B4238BF191C802883
:2056B00089B2918005DA10F1800FB8BF6FF07F0000E07F20D0719671194800681F29106082
:2056D0004FF0000008D340F2FF128A4206D24908401C8A42FBD301E01F219180124F0F3997
:2056F000090940EAC10047EA0001CAF8FB1F0026CAF8FF6FBDE8F0870C490D4F42460820BC
:205710000F60921D1070BDE8F087C0463C1100506E62084024220840283200209C130050FD
:20573000082009403500094000E7A48030100940FDFDA400AC3F005001282DE9FE4F40F041
:20575000EE80DFF810B2DBF8DC00012840F0E4800220CBF8DC0005F05DFE012004F006FC9E
:205770005FEA000805D00120CBF8DC0005F062FED7E006F061FC6C490290002008600120E4
:2057900005F0C2FB012818BF002003D1002003F023FC0120654900900020654F08603868E6
:2057B000112006F039FB00280CBF00240124102006F032FB08B144F002040F2006F02CFBB0
:2057D00008B144F004040B2006F026FB30B1624814300068574E016B308888470A2006F093
:2057F0001BFB002600B101264FF0805A0AF5DC75301C04D02868504E016B308888474F4844
:20581000012606602868816944F0200088474C48066006F0FBFA00F001010191400814D2B7
:20583000484806F04DFA8146B9F1040FF8D0B9F1010F05D1DAF8D8014268424803219047D5
:205850004149086820F0030008600020FFF760FE2B683868986B8047019801280DD0B9F109
:20587000010F05D1DAF8D80142683648314690473549086840F0030008602C48066028681E
:205890004169204688470B2006F0C6FA20B12868284BC16A188888470A2006F0BDFA20B122
:2058B0002868254BC16A188888472448032206602349CBF8DC2000230B602868416B2046EC
:2058D00088470128F9D13868042004F04FFB044615481E490660386808688009FCD3009880
:2058F000012802D1304603F077FB06F07DFA082004F03CFB07460298CBF8DC6006F05EFCCB
:205910001348008803F002FA05F094FD57EA040018BF4FF0FF3804E06FF0040801E06FF0FE
:2059300001084046BDE8FE8F0C400940000222432C2009408AD1000086D1000028200860A3
:205950008001044300400340242208401410094080D300001C1D0020A40100102DE9F04149
:205970001C4615468C4208BF854282BF00230022E5E0002C08BF002D0AD100290EBF00289A
:205990006FF000006FF0000100F0E1F8BDE8F0815FF000085FF0000E002C08BF8D429CBF88
:2059B0002C1C0025070C47EA01470E0CB44208BFBD429EBF5FEA044444EA15445FEA054500
:2059D000070A47EA01670E0AB44208BFBD429EBF5FEA042444EA15645FEA0525470847EAD1
:2059F000C1774E08B44208BFBD4200F29380870847EA81778E08B44208BFBD427CD8C7081B
:205A100047EA4177CE08B44208BFBD4266D8070947EA01770E09B44208BFBD4250D84709B9
:205A300047EAC1674E09B44208BFBD423AD8870947EA81678E09B44208BFBD4224D8C70910
:205A500047EA4167CE09B44208BFBD420DD8E60146EA5566EF01B14208BFB84201D3C01BC0
:205A7000B14158EB08085EEB0E0EA60146EA95664FEA8517B14208BFB84201D3C01BB14170
:205A900058EB08084EEB0E0E660146EAD5666F01B14208BFB84201D3C01BB14158EB080864
:205AB0004EEB0E0E260146EA15762F01B14208BFB84201D3C01BB14158EB08085EEB0E0E62
:205AD000E60046EA5576EF00B14208BFB84201D3C01BB14158EB08084EEB0E0EA60046EA13
:205AF0009576AF00B14208BFB84201D3C01BB14158EB08084EEB0E0E660046EAD5766F008F
:205B1000B14208BFB84201D3C01BB14158EB08085EEB0E0EA14208BFA84201D3401BA141C3
:205B300058EB08085EEB0E0EA34208BFAA423EBF2D0A45EA0465240A89D3734642461E460A
:205B500017460B46024631463846BDE8F0817047014677482DE9F04F3C38ADF12C0DB0F92E
:205B70000C204769B0F90E80468A0292002F028A0478039270D1B0F90820029B9A4240F314
:205B9000D280B0F90A20424540F3CD80620002EB84029A18002A40F3C68008EBC402002ABC
:205BB00040F3C180C078012803D0B029A4BF481CC1B25E4D0846002700EB80016818A0F17D
:205BD000010919F801AF00255FEA5A0008D20398B0421ED0012C18BF009605D1324610E0F5
:205BF000012C0DD0039800900298224604FB0581134604FB070009B200B205F04FFA08E0E7
:205C1000039A029805EB0801381809B200B205F08DFF6D1C4FEA6A0A082DD5DB7F1C052F1C
:205C3000CFDB0398B0427ED0012C0CD000960299204600EB80002246E300081800B2414620
:205C500005F02CFA6FE00298414633460822401D00B205F063FF66E0426947694669127AC4
:205C70007068891ACAB23968D60036F800A00491311891F905208F78C878069291F90610CC
:205C90000597022C0791BABF0021089108920991002848D000260190B3463746059D002DEF
:205CB0003CD0A94600250BF101005FFA80FB0BF1070010F0070F06D1049810F80A600AF1EA
:205CD00001031FFA83FA36F07F0320D0012C11D00398089B00900299E81804FB001009995A
:205CF0002246134600B2791804FB018109B205F0D5F90CE006980299079B039A4018281895
:205D100003EB080100B2791809B205F00FFF7000B9F1010905F10105C6B2C4D101987F1C1A
:205D3000401E0190BAD10BB0BDE8F08F3CCA000048310020F8B504466F481F4615460B469C
:205D5000DFF8B8C1B0F90420B0F906104078401E57D0401E05D0401E0CD10C1B641B24B230
:205D700052E0101BCB1A401E5B1E00B21BB2401B401C04B2002B00F1BE80994240F3BB806B
:205D9000002C02D5641925B2002428198242BCBF121B15B2002D40F3AE80C3F3D800614641
:205DB000012603F00703C00004EB0014091906FA03F0D7B17F1E0DD07F1E40F09C802F4677
:205DD0007A1E002F15B200F096800A78424001F8012BF4E72F467A1E002F15B200F08B801D
:205DF0000A78024301F8012BF4E780F0FF002F467A1E002F15B27ED00A78024001F8012B23
:205E1000F5E7D01A401E03B2181C74D4824272DD002C02D5641925B200242A199142BCBFFE
:205E3000091B0DB2002D66DDE1B2634614F0070FC1F3D801EEB24FEAC10100EB0110184429
:205E500022D02F4904F00704091B097AC4F10803B34203DD9C1BFF22224111403A1C09D0D2
:205E7000521E04D0521E0AD10278514006E00278114303E0027881F0FF0111400170B3423F
:205E900039DCF61A8030F6B2082E1FDB022F0FD0012F0CBFFF210021082EB4BF0125F51025
:205EB000A6EBC506F6B26D1E00F8801BFBD10DE0082EB4BF0125F510A6EBC506F6B20178A6
:205ED0006D1E81F0FF0100F8801BF8D19EB10D4906F00706895D4FB17F1E04D07F1E0AD1E3
:205EF0000278514006E00278114303E0027881F0FF0111400170F8BD0C3100202B110020D5
:205F1000AC230020A4230020F8B504466E481F4615460B46DFF8B4C1B0F90420B0F9061005
:205F30004078401E00F08C80401E06D0401E0AD10C1B1846641E24B285E0101BCE1A401E1F
:205F500004B2701B03B2002C00F1BC80A24240F3B980002B02D55B191DB20023E818814267
:205F7000BCBFC91A0DB2002D40F3AC80D8B2624613F0070FC0F3D800EEB24FEAC00004EB0A
:205F9000001402EB040022D0514903F00703C91A097AC3F10804B44203DDA31BFF221A412D
:205FB00011403A1C09D0521E04D0521E0AD10278514006E00278114303E0027881F0FF0135
:205FD00011400170B4427DDC361B8030F6B2082E1FDB022F0FD0012F0CBFFF210021082E45
:205FF000B4BF0125F510A6EBC506F6B26D1E00F8801BFBD10DE0082EB4BF0125F510A6EBB3
:20601000C506F6B201786D1E81F0FF0100F8801BF8D1002E56D02F4906F00706895D57B16F
:206030007F1E05D07F1E4DD1027851400170F8BD02781143FAE7027881F0FF011140F5E72B
:20605000D01A401B00B2002C3CD4A1423ADD002802D5401905B2002029188A42BCBF121A20
:2060700015B2002D2EDDC4F3D8016646012304F00704C90000EB0110301803FA04F1AFB153
:206090007F1E0AD07F1E1DD12F467A1E15B2CFB102784A4000F8012BF6E72F467A1E15B2C1
:2060B00087B102780A4300F8012BF6E781F0FF0103E002780A4000F8012B2A46531E002A89
:2060D0001DB2F6D1F8BDC0460C3100202B110020AC230020A42300202DE9F04FADF1240DAC
:2060F000079000F06BFD6148007804F0F7FE604D0024012808D90A380FD0801E04D0401ECB
:206110000ED0401E09D006E005F070FB022804BF01210C1C06D0696805E005211F2401E007
:20613000032107246960534A1068C0F38150012806D152F80C0C0127020E07FA02F00443CA
:2061500005F05CFD524AFF230818401E471C28607F1E02F8013BFBD1079A1268002702F0E7
:20617000FF03FE2B20D0DDF81CC096463B4601260EF0FF02FF2A10D0904205D3914203D85F
:2061900006FA02F2144201D002206CE017430EF0FF02DFF8FCE00EF802305CF804EF5B1C64
:2061B0000EF0FF02FE2AE5D1092001F091FD07980121A86005F1280004F0E8FE05F19806F5
:2061D000A8464FF0010A4FF0040B0025A9460AFA05F0044216D1074204BF05F0FF0141F4B9
:2061F000C04104D02A480799405D51F82010224801F0D4F9E8B24FF0FF3105F005FAC6F8AF
:20621000009001E0C6F800B0D8F800006D1C361D8542DCD904A805F0C1FC184C184A2078AB
:20623000102104AB059008F10C0003F0A3FF684605F0ECFCCDF80C906A46606811490290EF
:2062500008F1640004F0A6F80F4951F80D0C20F4F85040F4005041F80D0C0C4FC1F8FFAF91
:206270004846C7F800A009B0BDE8F08F3C320020081C0020B43F0050007FC76770D400003E
:2062900035B6000005A100000D300940080009404C1C00202DE9FC4F83F0004301E02DE9F0
:2062B000FC4F1F03FF0847EAD2574FEA42284FEA43095FEA595906D147EA080A1CBF0021C7
:2062D0000020BDE8FC8F57F000575FF4E06E1EF1FF0EF14505D14FF00000190D0905BDE8DF
:2062F000FC8F002B05D55FF0000AD8F100086AEB07070C03E40844EAD0544FEA40254FEA4D
:206310004106760D08D144EA050A19BF00210020191C101CBDE8FC8F44F00054764504D1CB
:206330000020090D0905BDE8FC8F002904D55FF0000A6D426AEB0404B6EB090E08D5A246F5
:206350003C465746AA464546D046CEF1000E4E46BEF1360F5CBF4FF0000B23E0BEF1000F02
:2063700004BF4FF0000B1AE0CEF1390ABAF120092EBF08FA09FB07FA0AFB4BEA080BDEF120
:20639000200A07FA0AFA38BFBA4647FA0EF72DBF28FA0EF8AEF1200E4AFA0EF8D04415EB42
:2063B00008057C4154EA050A02BF00210020BDE8FC8F002C58BF4FF0000A06D55FF0010AC3
:2063D0005FF0000E6D426EEB0404A6F101066D006441FAD515F4806E11D005F480794BEAC2
:2063F000090B15F5806554F1000428BF761C0BD205F400795BEA090B08BF25F4006525F4C2
:20641000E0656D0044EB0404B61CDEBF00210020BDE8FC8F5FF4E06E1EF1FF0E76450AD34E
:206430004FF0000013F00043FF21C900C91D09051943BDE8FC8F270547EA1530210B41EA65
:20645000065141EACA71BDE8FC8F70472DE9F843614C5A4D5A4EDFF870815E4F94F8E41046
:206470000846401E0B2864D8DFE800F07B2C43062343062343067664042907D001220A293E
:2064900045F8212C14BF0220032004E0202045F8210C0120024684F8E200002045F8390C53
:2064B0000827C5F8FF7FC5F8F37F45F8392CBDE8F883052914BF09200620002784F8E4009A
:2064D000376075E094F8E170383D0120002FC5F81B0004BF0620002102D00021F1600320D5
:2064F00084F8E400032045F8010C3160306880085ED294F8E4103348012703290ED0006849
:20651000456800216022052300914046A84794F8E400062814BF0A200720CFE70068456860
:20653000002160220523022000904046A8470420C4E7FEE72548264F0026012506600E20E3
:206550003D6001F067FB022004F0D4F984F8E45084F8E360BDE8F883002038600C25786008
:2065700024E04FF08059D9F8A0010168202088472C3D0F2045F8010C41F61D56C5F8036059
:20659000D9F8A401466800214FF4C0720723022540460095B047D9F8A401C66800214FF4C6
:2065B000C07207234046B0470120386084F8E45004F1780005F008FDBDE8F88339400C403D
:2065D00038600C40A401001000A00C402C500C4004800C4034600C401C1D00202DE9F04708
:2065F00004466568A6680F46ADF1200D05F0F6FC95F8DC10012903D105F0E4FD002085E08D
:206610004FF0010A85F8DCA005F0DCFD3878287078686860387AE860706801F059FB2046EC
:2066300003F0AEF9F868676828B9A06890F8149090F8158003E090F8009090F80180B9F1A1
:20665000FF0F15D0B8F1FF0F12D0324840EA09010491FE23069340EA080004A9059007F135
:20667000980001F027FDC7F8A400D7F8A40070B9294800240460294F3C60706801F0CAFAC4
:2066900005F0ACFC85F8DC4005F09CFD3DE049460D2204F065FCD7F8A40041460E2204F0D8
:2066B0005FFC684605F07AFA307B00946B46B1681B4A019005F1100003F05CFD684605F064
:2066D000A5FA306900946A461649029005F12C0003F060FE05F16000514604F057FC2878F6
:2066F00030B905F17C00002104F050FC0E48686000202872C5F8BC000C4AC5F8C000042185
:20671000234605F1C80004F045FD204608B0BDE8F087C04600200084042800401004054261
:20673000F56D00000D9500001FBF00004DBC00002DE9FC4191EA03084CBF4FF000484FF0B4
